{
	"simple.sol": {
		"BalanceCheck": {
			"abi": [
				{
					"inputs": [],
					"stateMutability": "nonpayable",
					"type": "constructor"
				},
				{
					"inputs": [],
					"name": "Balance",
					"outputs": [
						{
							"internalType": "uint256",
							"name": "",
							"type": "uint256"
						}
					],
					"stateMutability": "view",
					"type": "function"
				},
				{
					"inputs": [
						{
							"internalType": "uint256",
							"name": "amt",
							"type": "uint256"
						}
					],
					"name": "Deposite",
					"outputs": [
						{
							"internalType": "uint256",
							"name": "",
							"type": "uint256"
						}
					],
					"stateMutability": "nonpayable",
					"type": "function"
				},
				{
					"inputs": [
						{
							"internalType": "uint256",
							"name": "_amt",
							"type": "uint256"
						}
					],
					"name": "Withdrawl",
					"outputs": [],
					"stateMutability": "nonpayable",
					"type": "function"
				},
				{
					"inputs": [],
					"name": "admin",
					"outputs": [
						{
							"internalType": "address",
							"name": "",
							"type": "address"
						}
					],
					"stateMutability": "view",
					"type": "function"
				}
			],
			"devdoc": {
				"kind": "dev",
				"methods": {},
				"version": 1
			},
			"evm": {
				"assembly": "    /* \"simple.sol\":27:624  contract BalanceCheck {\r... */\n  mstore(0x40, 0x80)\n    /* \"simple.sol\":107:206  constructor() {\r... */\n  callvalue\n  dup1\n  iszero\n  tag_1\n  jumpi\n  0x00\n  dup1\n  revert\ntag_1:\n  pop\n    /* \"simple.sol\":140:150  msg.sender */\n  caller\n    /* \"simple.sol\":132:137  admin */\n  0x01\n  0x00\n    /* \"simple.sol\":132:150  admin = msg.sender */\n  0x0100\n  exp\n  dup2\n  sload\n  dup2\n  0xffffffffffffffffffffffffffffffffffffffff\n  mul\n  not\n  and\n  swap1\n  dup4\n  0xffffffffffffffffffffffffffffffffffffffff\n  and\n  mul\n  or\n  swap1\n  sstore\n  pop\n    /* \"simple.sol\":171:172  0 */\n  0x00\n    /* \"simple.sol\":161:168  balance */\n  dup1\n    /* \"simple.sol\":161:172  balance = 0 */\n  dup2\n  swap1\n  sstore\n  pop\n    /* \"simple.sol\":183:198  updateBalance() */\n  tag_4\n    /* \"simple.sol\":183:196  updateBalance */\n  shl(0x20, tag_5)\n    /* \"simple.sol\":183:198  updateBalance() */\n  0x20\n  shr\n  jump\t// in\ntag_4:\n    /* \"simple.sol\":27:624  contract BalanceCheck {\r... */\n  jump(tag_6)\n    /* \"simple.sol\":214:287  function updateBalance() internal {\r... */\ntag_5:\n    /* \"simple.sol\":270:279  msg.value */\n  callvalue\n    /* \"simple.sol\":259:266  balance */\n  0x00\n  dup1\n    /* \"simple.sol\":259:279  balance += msg.value */\n  dup3\n  dup3\n  sload\n  tag_8\n  swap2\n  swap1\n  tag_9\n  jump\t// in\ntag_8:\n  swap3\n  pop\n  pop\n  dup2\n  swap1\n  sstore\n  pop\n    /* \"simple.sol\":214:287  function updateBalance() internal {\r... */\n  jump\t// out\n    /* \"#utility.yul\":7:312   */\ntag_9:\n    /* \"#utility.yul\":47:50   */\n  0x00\n    /* \"#utility.yul\":66:86   */\n  tag_12\n    /* \"#utility.yul\":84:85   */\n  dup3\n    /* \"#utility.yul\":66:86   */\n  tag_13\n  jump\t// in\ntag_12:\n    /* \"#utility.yul\":61:86   */\n  swap2\n  pop\n    /* \"#utility.yul\":100:120   */\n  tag_14\n    /* \"#utility.yul\":118:119   */\n  dup4\n    /* \"#utility.yul\":100:120   */\n  tag_13\n  jump\t// in\ntag_14:\n    /* \"#utility.yul\":95:120   */\n  swap3\n  pop\n    /* \"#utility.yul\":254:255   */\n  dup3\n    /* \"#utility.yul\":186:252   */\n  0xffffffffffffffffffffffffffffffffffffffffffffffffffffffffffffffff\n    /* \"#utility.yul\":182:256   */\n  sub\n    /* \"#utility.yul\":179:180   */\n  dup3\n    /* \"#utility.yul\":176:257   */\n  gt\n    /* \"#utility.yul\":173:280   */\n  iszero\n  tag_15\n  jumpi\n    /* \"#utility.yul\":260:278   */\n  tag_16\n  tag_17\n  jump\t// in\ntag_16:\n    /* \"#utility.yul\":173:280   */\ntag_15:\n    /* \"#utility.yul\":304:305   */\n  dup3\n    /* \"#utility.yul\":301:302   */\n  dup3\n    /* \"#utility.yul\":297:306   */\n  add\n    /* \"#utility.yul\":290:306   */\n  swap1\n  pop\n    /* \"#utility.yul\":7:312   */\n  swap3\n  swap2\n  pop\n  pop\n  jump\t// out\n    /* \"#utility.yul\":318:395   */\ntag_13:\n    /* \"#utility.yul\":355:362   */\n  0x00\n    /* \"#utility.yul\":384:389   */\n  dup2\n    /* \"#utility.yul\":373:389   */\n  swap1\n  pop\n    /* \"#utility.yul\":318:395   */\n  swap2\n  swap1\n  pop\n  jump\t// out\n    /* \"#utility.yul\":401:581   */\ntag_17:\n    /* \"#utility.yul\":449:526   */\n  0x4e487b7100000000000000000000000000000000000000000000000000000000\n    /* \"#utility.yul\":446:447   */\n  0x00\n    /* \"#utility.yul\":439:527   */\n  mstore\n    /* \"#utility.yul\":546:550   */\n  0x11\n    /* \"#utility.yul\":543:544   */\n  0x04\n    /* \"#utility.yul\":536:551   */\n  mstore\n    /* \"#utility.yul\":570:574   */\n  0x24\n    /* \"#utility.yul\":567:568   */\n  0x00\n    /* \"#utility.yul\":560:575   */\n  revert\n    /* \"simple.sol\":27:624  contract BalanceCheck {\r... */\ntag_6:\n  dataSize(sub_0)\n  dup1\n  dataOffset(sub_0)\n  0x00\n  codecopy\n  0x00\n  return\nstop\n\nsub_0: assembly {\n        /* \"simple.sol\":27:624  contract BalanceCheck {\r... */\n      mstore(0x40, 0x80)\n      callvalue\n      dup1\n      iszero\n      tag_1\n      jumpi\n      0x00\n      dup1\n      revert\n    tag_1:\n      pop\n      jumpi(tag_2, lt(calldatasize, 0x04))\n      shr(0xe0, calldataload(0x00))\n      dup1\n      0x0ef67887\n      eq\n      tag_3\n      jumpi\n      dup1\n      0x42002bc8\n      eq\n      tag_4\n      jumpi\n      dup1\n      0xe615c1a0\n      eq\n      tag_5\n      jumpi\n      dup1\n      0xf851a440\n      eq\n      tag_6\n      jumpi\n    tag_2:\n      0x00\n      dup1\n      revert\n        /* \"simple.sol\":537:619  function Balance() public view returns (uint256) {\r... */\n    tag_3:\n      tag_7\n      tag_8\n      jump\t// in\n    tag_7:\n      mload(0x40)\n      tag_9\n      swap2\n      swap1\n      tag_10\n      jump\t// in\n    tag_9:\n      mload(0x40)\n      dup1\n      swap2\n      sub\n      swap1\n      return\n        /* \"simple.sol\":424:529  function Deposite(uint256 amt) public returns (uint256) {\r... */\n    tag_4:\n      tag_11\n      0x04\n      dup1\n      calldatasize\n      sub\n      dup2\n      add\n      swap1\n      tag_12\n      swap2\n      swap1\n      tag_13\n      jump\t// in\n    tag_12:\n      tag_14\n      jump\t// in\n    tag_11:\n      mload(0x40)\n      tag_15\n      swap2\n      swap1\n      tag_10\n      jump\t// in\n    tag_15:\n      mload(0x40)\n      dup1\n      swap2\n      sub\n      swap1\n      return\n        /* \"simple.sol\":295:416  function Withdrawl(uint256 _amt) public{\r... */\n    tag_5:\n      tag_16\n      0x04\n      dup1\n      calldatasize\n      sub\n      dup2\n      add\n      swap1\n      tag_17\n      swap2\n      swap1\n      tag_13\n      jump\t// in\n    tag_17:\n      tag_18\n      jump\t// in\n    tag_16:\n      stop\n        /* \"simple.sol\":78:98  address public admin */\n    tag_6:\n      tag_19\n      tag_20\n      jump\t// in\n    tag_19:\n      mload(0x40)\n      tag_21\n      swap2\n      swap1\n      tag_22\n      jump\t// in\n    tag_21:\n      mload(0x40)\n      dup1\n      swap2\n      sub\n      swap1\n      return\n        /* \"simple.sol\":537:619  function Balance() public view returns (uint256) {\r... */\n    tag_8:\n        /* \"simple.sol\":577:584  uint256 */\n      0x00\n        /* \"simple.sol\":604:611  balance */\n      dup1\n      sload\n        /* \"simple.sol\":597:611  return balance */\n      swap1\n      pop\n        /* \"simple.sol\":537:619  function Balance() public view returns (uint256) {\r... */\n      swap1\n      jump\t// out\n        /* \"simple.sol\":424:529  function Deposite(uint256 amt) public returns (uint256) {\r... */\n    tag_14:\n        /* \"simple.sol\":471:478  uint256 */\n      0x00\n        /* \"simple.sol\":518:521  amt */\n      dup2\n        /* \"simple.sol\":508:515  balance */\n      sload(0x00)\n        /* \"simple.sol\":508:521  balance + amt */\n      tag_25\n      swap2\n      swap1\n      tag_26\n      jump\t// in\n    tag_25:\n        /* \"simple.sol\":498:505  balance */\n      0x00\n        /* \"simple.sol\":498:521  balance = balance + amt */\n      dup2\n      swap1\n      sstore\n        /* \"simple.sol\":491:521  return balance = balance + amt */\n      swap1\n      pop\n        /* \"simple.sol\":424:529  function Deposite(uint256 amt) public returns (uint256) {\r... */\n      swap2\n      swap1\n      pop\n      jump\t// out\n        /* \"simple.sol\":295:416  function Withdrawl(uint256 _amt) public{\r... */\n    tag_18:\n        /* \"simple.sol\":367:372  admin */\n      0x01\n      0x00\n      swap1\n      sload\n      swap1\n      0x0100\n      exp\n      swap1\n      div\n      0xffffffffffffffffffffffffffffffffffffffff\n      and\n        /* \"simple.sol\":353:372  msg.sender == admin */\n      0xffffffffffffffffffffffffffffffffffffffff\n      and\n        /* \"simple.sol\":353:363  msg.sender */\n      caller\n        /* \"simple.sol\":353:372  msg.sender == admin */\n      0xffffffffffffffffffffffffffffffffffffffff\n      and\n      eq\n        /* \"simple.sol\":345:373  require(msg.sender == admin) */\n      tag_28\n      jumpi\n      0x00\n      dup1\n      revert\n    tag_28:\n        /* \"simple.sol\":404:408  _amt */\n      dup1\n        /* \"simple.sol\":394:401  balance */\n      sload(0x00)\n        /* \"simple.sol\":394:408  balance - _amt */\n      tag_29\n      swap2\n      swap1\n      tag_30\n      jump\t// in\n    tag_29:\n        /* \"simple.sol\":384:391  balance */\n      0x00\n        /* \"simple.sol\":384:408  balance = balance - _amt */\n      dup2\n      swap1\n      sstore\n      pop\n        /* \"simple.sol\":295:416  function Withdrawl(uint256 _amt) public{\r... */\n      pop\n      jump\t// out\n        /* \"simple.sol\":78:98  address public admin */\n    tag_20:\n      0x01\n      0x00\n      swap1\n      sload\n      swap1\n      0x0100\n      exp\n      swap1\n      div\n      0xffffffffffffffffffffffffffffffffffffffff\n      and\n      dup2\n      jump\t// out\n        /* \"#utility.yul\":7:146   */\n    tag_32:\n        /* \"#utility.yul\":53:58   */\n      0x00\n        /* \"#utility.yul\":91:97   */\n      dup2\n        /* \"#utility.yul\":78:98   */\n      calldataload\n        /* \"#utility.yul\":69:98   */\n      swap1\n      pop\n        /* \"#utility.yul\":107:140   */\n      tag_34\n        /* \"#utility.yul\":134:139   */\n      dup2\n        /* \"#utility.yul\":107:140   */\n      tag_35\n      jump\t// in\n    tag_34:\n        /* \"#utility.yul\":7:146   */\n      swap3\n      swap2\n      pop\n      pop\n      jump\t// out\n        /* \"#utility.yul\":152:481   */\n    tag_13:\n        /* \"#utility.yul\":211:217   */\n      0x00\n        /* \"#utility.yul\":260:262   */\n      0x20\n        /* \"#utility.yul\":248:257   */\n      dup3\n        /* \"#utility.yul\":239:246   */\n      dup5\n        /* \"#utility.yul\":235:258   */\n      sub\n        /* \"#utility.yul\":231:263   */\n      slt\n        /* \"#utility.yul\":228:347   */\n      iszero\n      tag_37\n      jumpi\n        /* \"#utility.yul\":266:345   */\n      tag_38\n      tag_39\n      jump\t// in\n    tag_38:\n        /* \"#utility.yul\":228:347   */\n    tag_37:\n        /* \"#utility.yul\":386:387   */\n      0x00\n        /* \"#utility.yul\":411:464   */\n      tag_40\n        /* \"#utility.yul\":456:463   */\n      dup5\n        /* \"#utility.yul\":447:453   */\n      dup3\n        /* \"#utility.yul\":436:445   */\n      dup6\n        /* \"#utility.yul\":432:454   */\n      add\n        /* \"#utility.yul\":411:464   */\n      tag_32\n      jump\t// in\n    tag_40:\n        /* \"#utility.yul\":401:464   */\n      swap2\n      pop\n        /* \"#utility.yul\":357:474   */\n      pop\n        /* \"#utility.yul\":152:481   */\n      swap3\n      swap2\n      pop\n      pop\n      jump\t// out\n        /* \"#utility.yul\":487:605   */\n    tag_41:\n        /* \"#utility.yul\":574:598   */\n      tag_43\n        /* \"#utility.yul\":592:597   */\n      dup2\n        /* \"#utility.yul\":574:598   */\n      tag_44\n      jump\t// in\n    tag_43:\n        /* \"#utility.yul\":569:572   */\n      dup3\n        /* \"#utility.yul\":562:599   */\n      mstore\n        /* \"#utility.yul\":487:605   */\n      pop\n      pop\n      jump\t// out\n        /* \"#utility.yul\":611:729   */\n    tag_45:\n        /* \"#utility.yul\":698:722   */\n      tag_47\n        /* \"#utility.yul\":716:721   */\n      dup2\n        /* \"#utility.yul\":698:722   */\n      tag_48\n      jump\t// in\n    tag_47:\n        /* \"#utility.yul\":693:696   */\n      dup3\n        /* \"#utility.yul\":686:723   */\n      mstore\n        /* \"#utility.yul\":611:729   */\n      pop\n      pop\n      jump\t// out\n        /* \"#utility.yul\":735:957   */\n    tag_22:\n        /* \"#utility.yul\":828:832   */\n      0x00\n        /* \"#utility.yul\":866:868   */\n      0x20\n        /* \"#utility.yul\":855:864   */\n      dup3\n        /* \"#utility.yul\":851:869   */\n      add\n        /* \"#utility.yul\":843:869   */\n      swap1\n      pop\n        /* \"#utility.yul\":879:950   */\n      tag_50\n        /* \"#utility.yul\":947:948   */\n      0x00\n        /* \"#utility.yul\":936:945   */\n      dup4\n        /* \"#utility.yul\":932:949   */\n      add\n        /* \"#utility.yul\":923:929   */\n      dup5\n        /* \"#utility.yul\":879:950   */\n      tag_41\n      jump\t// in\n    tag_50:\n        /* \"#utility.yul\":735:957   */\n      swap3\n      swap2\n      pop\n      pop\n      jump\t// out\n        /* \"#utility.yul\":963:1185   */\n    tag_10:\n        /* \"#utility.yul\":1056:1060   */\n      0x00\n        /* \"#utility.yul\":1094:1096   */\n      0x20\n        /* \"#utility.yul\":1083:1092   */\n      dup3\n        /* \"#utility.yul\":1079:1097   */\n      add\n        /* \"#utility.yul\":1071:1097   */\n      swap1\n      pop\n        /* \"#utility.yul\":1107:1178   */\n      tag_52\n        /* \"#utility.yul\":1175:1176   */\n      0x00\n        /* \"#utility.yul\":1164:1173   */\n      dup4\n        /* \"#utility.yul\":1160:1177   */\n      add\n        /* \"#utility.yul\":1151:1157   */\n      dup5\n        /* \"#utility.yul\":1107:1178   */\n      tag_45\n      jump\t// in\n    tag_52:\n        /* \"#utility.yul\":963:1185   */\n      swap3\n      swap2\n      pop\n      pop\n      jump\t// out\n        /* \"#utility.yul\":1272:1577   */\n    tag_26:\n        /* \"#utility.yul\":1312:1315   */\n      0x00\n        /* \"#utility.yul\":1331:1351   */\n      tag_56\n        /* \"#utility.yul\":1349:1350   */\n      dup3\n        /* \"#utility.yul\":1331:1351   */\n      tag_48\n      jump\t// in\n    tag_56:\n        /* \"#utility.yul\":1326:1351   */\n      swap2\n      pop\n        /* \"#utility.yul\":1365:1385   */\n      tag_57\n        /* \"#utility.yul\":1383:1384   */\n      dup4\n        /* \"#utility.yul\":1365:1385   */\n      tag_48\n      jump\t// in\n    tag_57:\n        /* \"#utility.yul\":1360:1385   */\n      swap3\n      pop\n        /* \"#utility.yul\":1519:1520   */\n      dup3\n        /* \"#utility.yul\":1451:1517   */\n      0xffffffffffffffffffffffffffffffffffffffffffffffffffffffffffffffff\n        /* \"#utility.yul\":1447:1521   */\n      sub\n        /* \"#utility.yul\":1444:1445   */\n      dup3\n        /* \"#utility.yul\":1441:1522   */\n      gt\n        /* \"#utility.yul\":1438:1545   */\n      iszero\n      tag_58\n      jumpi\n        /* \"#utility.yul\":1525:1543   */\n      tag_59\n      tag_60\n      jump\t// in\n    tag_59:\n        /* \"#utility.yul\":1438:1545   */\n    tag_58:\n        /* \"#utility.yul\":1569:1570   */\n      dup3\n        /* \"#utility.yul\":1566:1567   */\n      dup3\n        /* \"#utility.yul\":1562:1571   */\n      add\n        /* \"#utility.yul\":1555:1571   */\n      swap1\n      pop\n        /* \"#utility.yul\":1272:1577   */\n      swap3\n      swap2\n      pop\n      pop\n      jump\t// out\n        /* \"#utility.yul\":1583:1774   */\n    tag_30:\n        /* \"#utility.yul\":1623:1627   */\n      0x00\n        /* \"#utility.yul\":1643:1663   */\n      tag_62\n        /* \"#utility.yul\":1661:1662   */\n      dup3\n        /* \"#utility.yul\":1643:1663   */\n      tag_48\n      jump\t// in\n    tag_62:\n        /* \"#utility.yul\":1638:1663   */\n      swap2\n      pop\n        /* \"#utility.yul\":1677:1697   */\n      tag_63\n        /* \"#utility.yul\":1695:1696   */\n      dup4\n        /* \"#utility.yul\":1677:1697   */\n      tag_48\n      jump\t// in\n    tag_63:\n        /* \"#utility.yul\":1672:1697   */\n      swap3\n      pop\n        /* \"#utility.yul\":1716:1717   */\n      dup3\n        /* \"#utility.yul\":1713:1714   */\n      dup3\n        /* \"#utility.yul\":1710:1718   */\n      lt\n        /* \"#utility.yul\":1707:1741   */\n      iszero\n      tag_64\n      jumpi\n        /* \"#utility.yul\":1721:1739   */\n      tag_65\n      tag_60\n      jump\t// in\n    tag_65:\n        /* \"#utility.yul\":1707:1741   */\n    tag_64:\n        /* \"#utility.yul\":1766:1767   */\n      dup3\n        /* \"#utility.yul\":1763:1764   */\n      dup3\n        /* \"#utility.yul\":1759:1768   */\n      sub\n        /* \"#utility.yul\":1751:1768   */\n      swap1\n      pop\n        /* \"#utility.yul\":1583:1774   */\n      swap3\n      swap2\n      pop\n      pop\n      jump\t// out\n        /* \"#utility.yul\":1780:1876   */\n    tag_44:\n        /* \"#utility.yul\":1817:1824   */\n      0x00\n        /* \"#utility.yul\":1846:1870   */\n      tag_67\n        /* \"#utility.yul\":1864:1869   */\n      dup3\n        /* \"#utility.yul\":1846:1870   */\n      tag_68\n      jump\t// in\n    tag_67:\n        /* \"#utility.yul\":1835:1870   */\n      swap1\n      pop\n        /* \"#utility.yul\":1780:1876   */\n      swap2\n      swap1\n      pop\n      jump\t// out\n        /* \"#utility.yul\":1882:2008   */\n    tag_68:\n        /* \"#utility.yul\":1919:1926   */\n      0x00\n        /* \"#utility.yul\":1959:2001   */\n      0xffffffffffffffffffffffffffffffffffffffff\n        /* \"#utility.yul\":1952:1957   */\n      dup3\n        /* \"#utility.yul\":1948:2002   */\n      and\n        /* \"#utility.yul\":1937:2002   */\n      swap1\n      pop\n        /* \"#utility.yul\":1882:2008   */\n      swap2\n      swap1\n      pop\n      jump\t// out\n        /* \"#utility.yul\":2014:2091   */\n    tag_48:\n        /* \"#utility.yul\":2051:2058   */\n      0x00\n        /* \"#utility.yul\":2080:2085   */\n      dup2\n        /* \"#utility.yul\":2069:2085   */\n      swap1\n      pop\n        /* \"#utility.yul\":2014:2091   */\n      swap2\n      swap1\n      pop\n      jump\t// out\n        /* \"#utility.yul\":2097:2277   */\n    tag_60:\n        /* \"#utility.yul\":2145:2222   */\n      0x4e487b7100000000000000000000000000000000000000000000000000000000\n        /* \"#utility.yul\":2142:2143   */\n      0x00\n        /* \"#utility.yul\":2135:2223   */\n      mstore\n        /* \"#utility.yul\":2242:2246   */\n      0x11\n        /* \"#utility.yul\":2239:2240   */\n      0x04\n        /* \"#utility.yul\":2232:2247   */\n      mstore\n        /* \"#utility.yul\":2266:2270   */\n      0x24\n        /* \"#utility.yul\":2263:2264   */\n      0x00\n        /* \"#utility.yul\":2256:2271   */\n      revert\n        /* \"#utility.yul\":2406:2523   */\n    tag_39:\n        /* \"#utility.yul\":2515:2516   */\n      0x00\n        /* \"#utility.yul\":2512:2513   */\n      dup1\n        /* \"#utility.yul\":2505:2517   */\n      revert\n        /* \"#utility.yul\":2529:2651   */\n    tag_35:\n        /* \"#utility.yul\":2602:2626   */\n      tag_76\n        /* \"#utility.yul\":2620:2625   */\n      dup2\n        /* \"#utility.yul\":2602:2626   */\n      tag_48\n      jump\t// in\n    tag_76:\n        /* \"#utility.yul\":2595:2600   */\n      dup2\n        /* \"#utility.yul\":2592:2627   */\n      eq\n        /* \"#utility.yul\":2582:2645   */\n      tag_77\n      jumpi\n        /* \"#utility.yul\":2641:2642   */\n      0x00\n        /* \"#utility.yul\":2638:2639   */\n      dup1\n        /* \"#utility.yul\":2631:2643   */\n      revert\n        /* \"#utility.yul\":2582:2645   */\n    tag_77:\n        /* \"#utility.yul\":2529:2651   */\n      pop\n      jump\t// out\n\n    auxdata: 0xa264697066735822122085cbca4fb8b0676450805be02bf461aae63edf34c709278aba3c45ce7606fa1164736f6c63430008070033\n}\n",
				"bytecode": {
					"linkReferences": {},
					"object": "608060405234801561001057600080fd5b5033600160006101000a81548173ffffffffffffffffffffffffffffffffffffffff021916908373ffffffffffffffffffffffffffffffffffffffff1602179055506000808190555061006761006c60201b60201c565b610115565b3460008082825461007d9190610086565b92505081905550565b6000610091826100dc565b915061009c836100dc565b9250827fffffffffffffffffffffffffffffffffffffffffffffffffffffffffffffffff038211156100d1576100d06100e6565b5b828201905092915050565b6000819050919050565b7f4e487b7100000000000000000000000000000000000000000000000000000000600052601160045260246000fd5b610372806101246000396000f3fe608060405234801561001057600080fd5b506004361061004c5760003560e01c80630ef678871461005157806342002bc81461006f578063e615c1a01461009f578063f851a440146100bb575b600080fd5b6100596100d9565b6040516100669190610210565b60405180910390f35b610089600480360381019061008491906101aa565b6100e2565b6040516100969190610210565b60405180910390f35b6100b960048036038101906100b491906101aa565b6100fe565b005b6100c361016f565b6040516100d091906101f5565b60405180910390f35b60008054905090565b6000816000546100f2919061022b565b60008190559050919050565b600160009054906101000a900473ffffffffffffffffffffffffffffffffffffffff1673ffffffffffffffffffffffffffffffffffffffff163373ffffffffffffffffffffffffffffffffffffffff161461015857600080fd5b806000546101669190610281565b60008190555050565b600160009054906101000a900473ffffffffffffffffffffffffffffffffffffffff1681565b6000813590506101a481610325565b92915050565b6000602082840312156101c0576101bf610320565b5b60006101ce84828501610195565b91505092915050565b6101e0816102b5565b82525050565b6101ef816102e7565b82525050565b600060208201905061020a60008301846101d7565b92915050565b600060208201905061022560008301846101e6565b92915050565b6000610236826102e7565b9150610241836102e7565b9250827fffffffffffffffffffffffffffffffffffffffffffffffffffffffffffffffff03821115610276576102756102f1565b5b828201905092915050565b600061028c826102e7565b9150610297836102e7565b9250828210156102aa576102a96102f1565b5b828203905092915050565b60006102c0826102c7565b9050919050565b600073ffffffffffffffffffffffffffffffffffffffff82169050919050565b6000819050919050565b7f4e487b7100000000000000000000000000000000000000000000000000000000600052601160045260246000fd5b600080fd5b61032e816102e7565b811461033957600080fd5b5056fea264697066735822122085cbca4fb8b0676450805be02bf461aae63edf34c709278aba3c45ce7606fa1164736f6c63430008070033",
					"opcodes": "PUSH1 0x80 PUSH1 0x40 MSTORE CALLVALUE DUP1 ISZERO PUSH2 0x10 JUMPI PUSH1 0x0 DUP1 REVERT JUMPDEST POP CALLER PUSH1 0x1 PUSH1 0x0 PUSH2 0x100 EXP DUP2 SLOAD DUP2 PUSH20 0xFFFFFFFFFFFFFFFFFFFFFFFFFFFFFFFFFFFFFFFF MUL NOT AND SWAP1 DUP4 PUSH20 0xFFFFFFFFFFFFFFFFFFFFFFFFFFFFFFFFFFFFFFFF AND MUL OR SWAP1 SSTORE POP PUSH1 0x0 DUP1 DUP2 SWAP1 SSTORE POP PUSH2 0x67 PUSH2 0x6C PUSH1 0x20 SHL PUSH1 0x20 SHR JUMP JUMPDEST PUSH2 0x115 JUMP JUMPDEST CALLVALUE PUSH1 0x0 DUP1 DUP3 DUP3 SLOAD PUSH2 0x7D SWAP2 SWAP1 PUSH2 0x86 JUMP JUMPDEST SWAP3 POP POP DUP2 SWAP1 SSTORE POP JUMP JUMPDEST PUSH1 0x0 PUSH2 0x91 DUP3 PUSH2 0xDC JUMP JUMPDEST SWAP2 POP PUSH2 0x9C DUP4 PUSH2 0xDC JUMP JUMPDEST SWAP3 POP DUP3 PUSH32 0xFFFFFFFFFFFFFFFFFFFFFFFFFFFFFFFFFFFFFFFFFFFFFFFFFFFFFFFFFFFFFFFF SUB DUP3 GT ISZERO PUSH2 0xD1 JUMPI PUSH2 0xD0 PUSH2 0xE6 JUMP JUMPDEST JUMPDEST DUP3 DUP3 ADD SWAP1 POP SWAP3 SWAP2 POP POP JUMP JUMPDEST PUSH1 0x0 DUP2 SWAP1 POP SWAP2 SWAP1 POP JUMP JUMPDEST PUSH32 0x4E487B7100000000000000000000000000000000000000000000000000000000 PUSH1 0x0 MSTORE PUSH1 0x11 PUSH1 0x4 MSTORE PUSH1 0x24 PUSH1 0x0 REVERT JUMPDEST PUSH2 0x372 DUP1 PUSH2 0x124 PUSH1 0x0 CODECOPY PUSH1 0x0 RETURN INVALID PUSH1 0x80 PUSH1 0x40 MSTORE CALLVALUE DUP1 ISZERO PUSH2 0x10 JUMPI PUSH1 0x0 DUP1 REVERT JUMPDEST POP PUSH1 0x4 CALLDATASIZE LT PUSH2 0x4C JUMPI PUSH1 0x0 CALLDATALOAD PUSH1 0xE0 SHR DUP1 PUSH4 0xEF67887 EQ PUSH2 0x51 JUMPI DUP1 PUSH4 0x42002BC8 EQ PUSH2 0x6F JUMPI DUP1 PUSH4 0xE615C1A0 EQ PUSH2 0x9F JUMPI DUP1 PUSH4 0xF851A440 EQ PUSH2 0xBB JUMPI JUMPDEST PUSH1 0x0 DUP1 REVERT JUMPDEST PUSH2 0x59 PUSH2 0xD9 JUMP JUMPDEST PUSH1 0x40 MLOAD PUSH2 0x66 SWAP2 SWAP1 PUSH2 0x210 JUMP JUMPDEST PUSH1 0x40 MLOAD DUP1 SWAP2 SUB SWAP1 RETURN JUMPDEST PUSH2 0x89 PUSH1 0x4 DUP1 CALLDATASIZE SUB DUP2 ADD SWAP1 PUSH2 0x84 SWAP2 SWAP1 PUSH2 0x1AA JUMP JUMPDEST PUSH2 0xE2 JUMP JUMPDEST PUSH1 0x40 MLOAD PUSH2 0x96 SWAP2 SWAP1 PUSH2 0x210 JUMP JUMPDEST PUSH1 0x40 MLOAD DUP1 SWAP2 SUB SWAP1 RETURN JUMPDEST PUSH2 0xB9 PUSH1 0x4 DUP1 CALLDATASIZE SUB DUP2 ADD SWAP1 PUSH2 0xB4 SWAP2 SWAP1 PUSH2 0x1AA JUMP JUMPDEST PUSH2 0xFE JUMP JUMPDEST STOP JUMPDEST PUSH2 0xC3 PUSH2 0x16F JUMP JUMPDEST PUSH1 0x40 MLOAD PUSH2 0xD0 SWAP2 SWAP1 PUSH2 0x1F5 JUMP JUMPDEST PUSH1 0x40 MLOAD DUP1 SWAP2 SUB SWAP1 RETURN JUMPDEST PUSH1 0x0 DUP1 SLOAD SWAP1 POP SWAP1 JUMP JUMPDEST PUSH1 0x0 DUP2 PUSH1 0x0 SLOAD PUSH2 0xF2 SWAP2 SWAP1 PUSH2 0x22B JUMP JUMPDEST PUSH1 0x0 DUP2 SWAP1 SSTORE SWAP1 POP SWAP2 SWAP1 POP JUMP JUMPDEST PUSH1 0x1 PUSH1 0x0 SWAP1 SLOAD SWAP1 PUSH2 0x100 EXP SWAP1 DIV PUSH20 0xFFFFFFFFFFFFFFFFFFFFFFFFFFFFFFFFFFFFFFFF AND PUSH20 0xFFFFFFFFFFFFFFFFFFFFFFFFFFFFFFFFFFFFFFFF AND CALLER PUSH20 0xFFFFFFFFFFFFFFFFFFFFFFFFFFFFFFFFFFFFFFFF AND EQ PUSH2 0x158 JUMPI PUSH1 0x0 DUP1 REVERT JUMPDEST DUP1 PUSH1 0x0 SLOAD PUSH2 0x166 SWAP2 SWAP1 PUSH2 0x281 JUMP JUMPDEST PUSH1 0x0 DUP2 SWAP1 SSTORE POP POP JUMP JUMPDEST PUSH1 0x1 PUSH1 0x0 SWAP1 SLOAD SWAP1 PUSH2 0x100 EXP SWAP1 DIV PUSH20 0xFFFFFFFFFFFFFFFFFFFFFFFFFFFFFFFFFFFFFFFF AND DUP2 JUMP JUMPDEST PUSH1 0x0 DUP2 CALLDATALOAD SWAP1 POP PUSH2 0x1A4 DUP2 PUSH2 0x325 JUMP JUMPDEST SWAP3 SWAP2 POP POP JUMP JUMPDEST PUSH1 0x0 PUSH1 0x20 DUP3 DUP5 SUB SLT ISZERO PUSH2 0x1C0 JUMPI PUSH2 0x1BF PUSH2 0x320 JUMP JUMPDEST JUMPDEST PUSH1 0x0 PUSH2 0x1CE DUP5 DUP3 DUP6 ADD PUSH2 0x195 JUMP JUMPDEST SWAP2 POP POP SWAP3 SWAP2 POP POP JUMP JUMPDEST PUSH2 0x1E0 DUP2 PUSH2 0x2B5 JUMP JUMPDEST DUP3 MSTORE POP POP JUMP JUMPDEST PUSH2 0x1EF DUP2 PUSH2 0x2E7 JUMP JUMPDEST DUP3 MSTORE POP POP JUMP JUMPDEST PUSH1 0x0 PUSH1 0x20 DUP3 ADD SWAP1 POP PUSH2 0x20A PUSH1 0x0 DUP4 ADD DUP5 PUSH2 0x1D7 JUMP JUMPDEST SWAP3 SWAP2 POP POP JUMP JUMPDEST PUSH1 0x0 PUSH1 0x20 DUP3 ADD SWAP1 POP PUSH2 0x225 PUSH1 0x0 DUP4 ADD DUP5 PUSH2 0x1E6 JUMP JUMPDEST SWAP3 SWAP2 POP POP JUMP JUMPDEST PUSH1 0x0 PUSH2 0x236 DUP3 PUSH2 0x2E7 JUMP JUMPDEST SWAP2 POP PUSH2 0x241 DUP4 PUSH2 0x2E7 JUMP JUMPDEST SWAP3 POP DUP3 PUSH32 0xFFFFFFFFFFFFFFFFFFFFFFFFFFFFFFFFFFFFFFFFFFFFFFFFFFFFFFFFFFFFFFFF SUB DUP3 GT ISZERO PUSH2 0x276 JUMPI PUSH2 0x275 PUSH2 0x2F1 JUMP JUMPDEST JUMPDEST DUP3 DUP3 ADD SWAP1 POP SWAP3 SWAP2 POP POP JUMP JUMPDEST PUSH1 0x0 PUSH2 0x28C DUP3 PUSH2 0x2E7 JUMP JUMPDEST SWAP2 POP PUSH2 0x297 DUP4 PUSH2 0x2E7 JUMP JUMPDEST SWAP3 POP DUP3 DUP3 LT ISZERO PUSH2 0x2AA JUMPI PUSH2 0x2A9 PUSH2 0x2F1 JUMP JUMPDEST JUMPDEST DUP3 DUP3 SUB SWAP1 POP SWAP3 SWAP2 POP POP JUMP JUMPDEST PUSH1 0x0 PUSH2 0x2C0 DUP3 PUSH2 0x2C7 JUMP JUMPDEST SWAP1 POP SWAP2 SWAP1 POP JUMP JUMPDEST PUSH1 0x0 PUSH20 0xFFFFFFFFFFFFFFFFFFFFFFFFFFFFFFFFFFFFFFFF DUP3 AND SWAP1 POP SWAP2 SWAP1 POP JUMP JUMPDEST PUSH1 0x0 DUP2 SWAP1 POP SWAP2 SWAP1 POP JUMP JUMPDEST PUSH32 0x4E487B7100000000000000000000000000000000000000000000000000000000 PUSH1 0x0 MSTORE PUSH1 0x11 PUSH1 0x4 MSTORE PUSH1 0x24 PUSH1 0x0 REVERT JUMPDEST PUSH1 0x0 DUP1 REVERT JUMPDEST PUSH2 0x32E DUP2 PUSH2 0x2E7 JUMP JUMPDEST DUP2 EQ PUSH2 0x339 JUMPI PUSH1 0x0 DUP1 REVERT JUMPDEST POP JUMP INVALID LOG2 PUSH5 0x6970667358 0x22 SLT KECCAK256 DUP6 0xCB 0xCA 0x4F 0xB8 0xB0 PUSH8 0x6450805BE02BF461 0xAA 0xE6 RETURNDATACOPY 0xDF CALLVALUE 0xC7 MULMOD 0x27 DUP11 0xBA EXTCODECOPY GASLIMIT 0xCE PUSH23 0x6FA1164736F6C63430008070033000000000000000000 "
				},
				"gasEstimates": {
					"creation": {
						"codeDepositCost": "176400",
						"executionCost": "infinite",
						"totalCost": "infinite"
					},
					"external": {
						"Balance()": "2415",
						"Deposite(uint256)": "infinite",
						"Withdrawl(uint256)": "infinite",
						"admin()": "2558"
					},
					"internal": {
						"updateBalance()": "infinite"
					}
				},
				"methodIdentifiers": {
					"Balance()": "0ef67887",
					"Deposite(uint256)": "42002bc8",
					"Withdrawl(uint256)": "e615c1a0",
					"admin()": "f851a440"
				}
			},
			"storageLayout": {
				"storage": [
					{
						"astId": 3,
						"contract": "simple.sol:BalanceCheck",
						"label": "balance",
						"offset": 0,
						"slot": "0",
						"type": "t_uint256"
					},
					{
						"astId": 5,
						"contract": "simple.sol:BalanceCheck",
						"label": "admin",
						"offset": 0,
						"slot": "1",
						"type": "t_address"
					}
				],
				"types": {
					"t_address": {
						"encoding": "inplace",
						"label": "address",
						"numberOfBytes": "20"
					},
					"t_uint256": {
						"encoding": "inplace",
						"label": "uint256",
						"numberOfBytes": "32"
					}
				}
			},
			"userdoc": {
				"kind": "user",
				"methods": {},
				"version": 1
			}
		}
	}
}